:100000000C9463000C948B000C948B000C94FC02F9
:100010000C94FC020C94FC020C948B000C948B004E
:100020000C948B000C948B000C948B000C948B0024
:100030000C948B000C948B000C948B000C948B0014
:100040000C945A020C948B000C94CA020C94A402D7
:100050000C948B000C948B000C948B000C948B00F4
:100060000C948B000C948B0000000008000201002F
:100070000003040700000000000000000000000072
:1000800023002600290000000000240027002A0089
:1000900000000000250028002B00040404040404D0
:1000A0000404020202020202030303030303010227
:1000B00004081020408001020408102001020408F6
:1000C0001020C003FC0511241FBECFEFD8E0DEBF17
:1000D000CDBF11E0A0E0B1E0E6EAFCE002C005908F
:1000E0000D92A634B107D9F722E0A6E4B1E001C031
:1000F0001D92AF34B207E1F710E0C2E6D0E004C0D1
:100100002197FE010E944006C136D107C9F70E941F
:10011000A9040C9446060C940000AF92BF92CF92B3
:10012000DF92EF92FF920F931F93CF93DF936C01B7
:100130007B018B01040F151FEB015E01AE18BF0898
:10014000C017D10759F06991D601ED91FC9101904A
:10015000F081E02DC6010995892B79F7C501DF9162
:10016000CF911F910F91FF90EF90DF90CF90BF90B4
:10017000AF900895FC01538D448D252F30E0842FDE
:1001800090E0821B930B541710F0CF9608950197BF
:100190000895FC01918D828D981761F0A28DAE0FAC
:1001A000BF2FB11D5D968C91928D9F5F9F73928F33
:1001B00090E008958FEF9FEF0895FC01918D828D5F
:1001C000981731F0828DE80FF11D858D90E008952C
:1001D0008FEF9FEF0895FC01918D228D892F90E084
:1001E000805C9F4F821B91098F739927089583E943
:1001F00091E00E94EB0021E0892B09F420E0822F9E
:10020000089580E090E0892B29F00E94F700811189
:100210000C9400000895FC01A48DA80FB92FB11D06
:10022000A35ABF4F2C91848D90E001968F7399272C
:10023000848FA689B7892C93A089B1898C9183700A
:1002400080648C93938D848D981306C00288F38903
:10025000E02D80818F7D80830895EF92FF920F9330
:100260001F93CF93DF93EC0181E0888F9B8D8C8D62
:1002700098131AC0E889F989808185FF15C09FB756
:10028000F894EE89FF896083E889F9898081837019
:10029000806480839FBF81E090E0DF91CF911F91C8
:1002A0000F91FF90EF900895F62E0B8D10E00F5FE9
:1002B0001F4F0F731127E02E8C8D8E110CC00FB6BF
:1002C00007FCFACFE889F989808185FFF5CFCE0157
:1002D0000E940B01F1CFEB8DEC0FFD2FF11DE35AC6
:1002E000FF4FF0829FB7F8940B8FEA89FB898081DA
:1002F0008062CFCFCF93DF93EC01888D8823B9F054
:10030000AA89BB89E889F9898C9185FD03C0808120
:1003100086FD0DC00FB607FCF7CF8C9185FFF2CF9D
:10032000808185FFEDCFCE010E940B01E9CFDF91E7
:10033000CF910895209188013091890128173907BC
:1003400071F49091860180918701981741F0E091B6
:100350008601F0E0EA5BFE4F808190E008958FEF28
:100360009FEF08950895EF92FF920F931F93CF93FD
:10037000DF93DC015C96ED90FC905D97E114F10455
:1003800079F481E090E013969C938E93129790E01D
:1003900080E0DF91CF911F910F91FF90EF90089532
:1003A0005196ED91FC91529750968C915097982FC1
:1003B00090950FB75E962C915E97122F127021FDCB
:1003C0006095F8942081112319F1282B2083E701EF
:1003D0002197F1F728E0462F50E0308160FF1AC0E6
:1003E000382B3083E7012197F1F7BA0175956795AE
:1003F000215089F7112381F08081892380830FBFE9
:100400005C968D919C910197F1F781E090E0C1CFCE
:100410002923DCCF3923E5CF9081892BEFCF2091A1
:100420008801309189012817390771F4809187017B
:100430002091860190E0805C9F4F821B910960E4CF
:1004400070E00E941806089590E080E008952091E1
:1004500088013091890128173907B9F490918601F4
:1004600080918701981789F0E0918601F0E0EA5BBE
:10047000FE4F80812091860130E02F5F3F4F2F7328
:1004800033272093860190E008958FEF9FEF089522
:1004900090E080E00895FB0101900020E9F731979A
:1004A000AF01461B570BDC01ED91FC910280F381FB
:1004B000E02D09941F920F920FB60F9211242F93E3
:1004C0003F938F939F93AF93BF9380918F019091B0
:1004D0009001A0919101B091920130918E0123E0A1
:1004E000230F2D3758F50196A11DB11D20938E01C4
:1004F00080938F0190939001A0939101B09392010A
:1005000080918A0190918B01A0918C01B0918D0115
:100510000196A11DB11D80938A0190938B01A09338
:100520008C01B0938D01BF91AF919F918F913F91BD
:100530002F910F900FBE0F901F90189526E8230F54
:100540000296A11DB11DD2CF1F920F920FB60F922E
:1005500011242F933F934F935F936F937F938F93C8
:100560009F93AF93BF93EF93FF9383E991E00E9432
:100570000B01FF91EF91BF91AF919F918F917F916F
:100580006F915F914F913F912F910F900FBE0F9000
:100590001F9018951F920F920FB60F9211242F9350
:1005A0008F939F93EF93FF93E091A301F091A401A8
:1005B0008081E091A901F091AA0182FD1BC0908188
:1005C0008091AC018F5F8F732091AD01821741F054
:1005D000E091AC01F0E0ED56FE4F958F8093AC01B9
:1005E000FF91EF919F918F912F910F900FBE0F90E0
:1005F0001F9018958081F4CF1F920F920FB60F9223
:1006000011242F933F934F935F936F937F938F9317
:100610009F93AF93BF93EF93FF93E0918801F09185
:100620008901309749F0A685B7858585968D91FF1C
:1006300014C09C918923A1F4FF91EF91BF91AF91D8
:100640009F918F917F916F915F914F913F912F91EA
:100650000F900FBE0F901F9018959C91892361F702
:10066000A389B4899C918589809589238C938689F7
:1006700097890197F1F7608D718DA685B7855585AE
:1006800038E020E0CB010197F1F7822F90E09595BB
:100690008795282F4C91452309F02068315091F718
:1006A000868D81FD20958091870190E001968F7362
:1006B000992730918601381799F0A0918701B0E011
:1006C000AA5BBE4F2C9380938701828D938D0197F7
:1006D000F1F7A389B4898C919589892B8C93ACCF40
:1006E000868D8160868FF1CF90E0FC01E859FF4F45
:1006F0002491FC01E255FF4F3491FC01E656FF4F77
:10070000E491EE23C9F0222339F0233001F1A8F45B
:10071000213019F1223029F1F0E0EE0FFF1FE057F0
:10072000FF4FA591B4918FB7F894EC91611126C059
:1007300030953E233C938FBF08952730A9F0283091
:10074000C9F0243049F7809180008F7D03C08091EB
:1007500080008F7780938000DFCF84B58F7784BD52
:10076000DBCF84B58F7DFBCF8091B0008F778093F6
:10077000B000D2CF8091B0008F7DF9CF3E2BDACF81
:100780000F931F93CF93DF931092960110929501D0
:1007900088EE93E0A0E0B0E08093970190939801F9
:1007A000A0939901B0939A0124E031E03093940131
:1007B0002093930125EC30E03093A00120939F011A
:1007C00024EC30E03093A2012093A10120EC30E032
:1007D0003093A4012093A30121EC30E03093A601D3
:1007E0002093A50122EC30E03093A8012093A701CB
:1007F00026EC30E03093AA012093A9011092AC01BD
:100800001092AD011092AE011092AF01109233021E
:10081000109232028093340290933502A0933602F4
:10082000B093370286E191E09093310280933002D9
:10083000109247021092460210924902109248020A
:1008400010924B0210924A0210924D0210924C02EA
:1008500060914E026E7F6D7F60934E02669561706F
:1008600081E068278BE00E94740349EB50E0FA01B5
:10087000649185EA90E0FC012491222399F030E014
:10088000220F331FF901EA57FF4FA591B491F901E7
:10089000E057FF4F259134912FB7F8943C91632B8B
:1008A0006C932FBFFA01449140934002FC01849164
:1008B000E82FF0E0EE0FFF1FE057FF4F8591949176
:1008C000909342028093410208EB10E0F8012491DA
:1008D000C4EAD0E0FE0184918823C9F090E0880F3B
:1008E000991FFC01EA57FF4FA591B491FC01E05715
:1008F000FF4F459154913FB7F8949C91822F80957A
:1009000098239C93FA019081892380833FBF809133
:100910004E0281FD04C061E08AE00E9474038AE017
:1009200080933C02F801049100933D02FE01C491C2
:10093000EC2FF0E0EE0FFF1FE458FF4F85919491EC
:1009400090933F0280933E02DF91CF911F910F91D0
:100950000895789484B5826084BD84B5816084BD37
:1009600085B5826085BD85B5816085BD80916E004D
:10097000816080936E00109281008091810082607E
:1009800080938100809181008160809381008091BB
:1009900080008160809380008091B10084608093AA
:1009A000B1008091B00081608093B00080917A00A6
:1009B000846080937A0080917A00826080937A00CC
:1009C00080917A00816080937A0080917A008068BB
:1009D00080937A001092C100E091A301F091A401EC
:1009E00082E08083E0919F01F091A0011082E0916C
:1009F000A101F091A2018FEC80831092AB01E091F4
:100A0000A701F091A80186E08083E091A501F09113
:100A1000A601808180618083E091A501F091A6010B
:100A2000808188608083E091A501F091A60180819A
:100A300080688083E091A501F091A60180818F7D7F
:100A4000808364E271E083E991E00E944B0264E3F9
:100A500071E083E991E00E944B0210924B021092E8
:100A60004A021092490210924802109247021092D4
:100A700046028DE991E090934D0280934C02909153
:100A80003C02963108F047C02DEB30E0309347022E
:100A9000209346022BE931E030934902209348022B
:100AA0002CE231E030934B0220934A0220916800FF
:100AB00084E0983048F031E09E3008F430E081E086
:100AC00001C0880F3A95EAF7822B809368002DE6E3
:100AD00030E0983050F02BE630E09E3030F02CE6DD
:100AE00030E0963110F030E020E030934402209363
:100AF0004302292F30E0983008F071C081E001C036
:100B0000880F9A95EAF78093450280914C02909164
:100B10004D020197F1F780914A0290914B02892B87
:100B200049F1E0918801F091890182E0E033F80712
:100B300009F1309739F0A389B4899C918589809512
:100B400089238C9380914E028E7F80934E02109267
:100B500087011092860180E392E09093890180934F
:100B60008801E0914302F091440280819091450216
:100B7000892B808367E371E080E392E00E944B025F
:100B800064E371E080E392E00E944B02C0E0D0E0B9
:100B900080E392E00E940F02892B49F080E392E00B
:100BA0000E942702682F83E991E00E942D0183E9CA
:100BB00091E00E94EB00892B49F083E991E00E94CB
:100BC000C900682F80E392E00E94B301209701F3EF
:100BD0000E94F7008823E1F20E940000D9CF9E30E6
:100BE00040F42850310981E001C0880F2A95EAF7C6
:100BF0008ACF2E503109F7CF86E191E090933102F0
:100C000080933002809188019091890180539240B5
:100C100071F4E0914302F091440290818091450289
:100C2000809589238083109289011092880108950C
:100C300097FB072E16F4009407D077FD09D00E9489
:100C40002C0607FC05D03EF4909581959F4F0895A2
:100C5000709561957F4F0895AA1BBB1B51E107C09A
:100C6000AA1FBB1FA617B70710F0A61BB70B881F3C
:100C7000991F5A95A9F780959095BC01CD010895CB
:100C8000EE0FFF1F0590F491E02D099410E0C2E6ED
:100C9000D0E004C0FE010E9440062196C336D10771
:060CA000C9F7F894FFCF34
:100CA600000000002D018D00BA007A01EB00C9009A
:100CB600DD0000000000B3018D004802B2010F0202
:100CC60027029A01476F6F646E69676874206D6FBB
:100CD6006F6E21000D0A0048656C6C6F2C20776FD3
:060CE600726C64210000A5
:00000001FF
